{
  "abi": [
    {
      "inputs": [],
      "stateMutability": "nonpayable",
      "type": "constructor"
    },
    {
      "anonymous": false,
      "inputs": [
        {
          "indexed": true,
          "internalType": "address",
          "name": "previousOwner",
          "type": "address"
        },
        {
          "indexed": true,
          "internalType": "address",
          "name": "newOwner",
          "type": "address"
        }
      ],
      "name": "OwnershipTransferred",
      "type": "event"
    },
    {
      "anonymous": false,
      "inputs": [
        {
          "indexed": false,
          "internalType": "uint256",
          "name": "",
          "type": "uint256"
        }
      ],
      "name": "currentSupply",
      "type": "event"
    },
    {
      "anonymous": false,
      "inputs": [
        {
          "indexed": true,
          "internalType": "uint256",
          "name": "_amount",
          "type": "uint256"
        },
        {
          "indexed": true,
          "internalType": "address",
          "name": "recipient",
          "type": "address"
        }
      ],
      "name": "transferSuccess",
      "type": "event"
    },
    {
      "inputs": [
        {
          "internalType": "address",
          "name": "_user",
          "type": "address"
        }
      ],
      "name": "balance",
      "outputs": [
        {
          "internalType": "uint256",
          "name": "",
          "type": "uint256"
        }
      ],
      "stateMutability": "view",
      "type": "function"
    },
    {
      "inputs": [
        {
          "internalType": "address",
          "name": "",
          "type": "address"
        }
      ],
      "name": "holdings",
      "outputs": [
        {
          "internalType": "uint256",
          "name": "",
          "type": "uint256"
        }
      ],
      "stateMutability": "view",
      "type": "function"
    },
    {
      "inputs": [],
      "name": "increaseTotalSupply",
      "outputs": [],
      "stateMutability": "nonpayable",
      "type": "function"
    },
    {
      "inputs": [],
      "name": "owner",
      "outputs": [
        {
          "internalType": "address",
          "name": "",
          "type": "address"
        }
      ],
      "stateMutability": "view",
      "type": "function"
    },
    {
      "inputs": [],
      "name": "renounceOwnership",
      "outputs": [],
      "stateMutability": "nonpayable",
      "type": "function"
    },
    {
      "inputs": [],
      "name": "retrieveTotalSupply",
      "outputs": [
        {
          "internalType": "uint256",
          "name": "",
          "type": "uint256"
        }
      ],
      "stateMutability": "view",
      "type": "function"
    },
    {
      "inputs": [
        {
          "internalType": "uint256",
          "name": "_amountTransferred",
          "type": "uint256"
        },
        {
          "internalType": "address",
          "name": "_recipientAddress",
          "type": "address"
        }
      ],
      "name": "transfer",
      "outputs": [
        {
          "internalType": "uint256",
          "name": "",
          "type": "uint256"
        }
      ],
      "stateMutability": "nonpayable",
      "type": "function"
    },
    {
      "inputs": [
        {
          "internalType": "address",
          "name": "newOwner",
          "type": "address"
        }
      ],
      "name": "transferOwnership",
      "outputs": [],
      "stateMutability": "nonpayable",
      "type": "function"
    },
    {
      "inputs": [
        {
          "internalType": "address",
          "name": "_user",
          "type": "address"
        }
      ],
      "name": "viewPayments",
      "outputs": [
        {
          "internalType": "address",
          "name": "",
          "type": "address"
        },
        {
          "internalType": "uint256",
          "name": "",
          "type": "uint256"
        }
      ],
      "stateMutability": "view",
      "type": "function"
    }
  ],
  "bytecode": {
    "object": "0x608060405261271060015534801561001657600080fd5b5061002033610038565b60015433600090815260026020526040902055610088565b600080546001600160a01b038381166001600160a01b0319831681178455604051919092169283917f8be0079c531659141344cd1fd0a4f28419497f9722a3daafe3b4186f6b6457e09190a35050565b6104f2806100976000396000f3fe608060405234801561001057600080fd5b50600436106100935760003560e01c8063b7760c8f11610066578063b7760c8f14610127578063dd3ced631461013a578063de0f2be11461015a578063e3d670d714610162578063f2fde38b1461018b57600080fd5b80630d526427146100985780636b42141b146100f0578063715018a6146101025780638da5cb5b1461010c575b600080fd5b6100cc6100a6366004610432565b6001600160a01b0390811660009081526005602052604090208054600190910154911691565b604080516001600160a01b0390931683526020830191909152015b60405180910390f35b6001545b6040519081526020016100e7565b61010a61019e565b005b6000546040516001600160a01b0390911681526020016100e7565b6100f4610135366004610454565b6101b2565b6100f4610148366004610432565b60026020526000908152604090205481565b61010a61029d565b6100f4610170366004610432565b6001600160a01b031660009081526002602052604090205490565b61010a610199366004610432565b6102ee565b6101a661036c565b6101b060006103c6565b565b336000908152600260205260408120546101cd908490610496565b33600090815260026020526040808220929092556001600160a01b038416815220546101fa9084906104a9565b6001600160a01b03838116600081815260026020908152604080832095909555845180860186528381528082018981523384526005909252858320905181546001600160a01b031916951694909417845551600190930192909255915185917fbb4584f53b996f34fad612e2ad6ebb3044592c7e16d455d6c54ac2bbaad292a291a3506001600160a01b0381166000908152600260205260409020545b92915050565b6102a561036c565b6001546102b4906103e86104a9565b60018190556040519081527f5b7460778807178812f362eb2c146823d2e0553598101d3e2599b5938c88d3c89060200160405180910390a1565b6102f661036c565b6001600160a01b0381166103605760405162461bcd60e51b815260206004820152602660248201527f4f776e61626c653a206e6577206f776e657220697320746865207a65726f206160448201526564647265737360d01b60648201526084015b60405180910390fd5b610369816103c6565b50565b6000546001600160a01b031633146101b05760405162461bcd60e51b815260206004820181905260248201527f4f776e61626c653a2063616c6c6572206973206e6f7420746865206f776e65726044820152606401610357565b600080546001600160a01b038381166001600160a01b0319831681178455604051919092169283917f8be0079c531659141344cd1fd0a4f28419497f9722a3daafe3b4186f6b6457e09190a35050565b80356001600160a01b038116811461042d57600080fd5b919050565b60006020828403121561044457600080fd5b61044d82610416565b9392505050565b6000806040838503121561046757600080fd5b8235915061047760208401610416565b90509250929050565b634e487b7160e01b600052601160045260246000fd5b8181038181111561029757610297610480565b808201808211156102975761029761048056fea2646970667358221220aefa9f08d3f09b334d622318ffa63d7d4876bef5f6b40cb79eba45e119ab66fb64736f6c63430008110033",
    "linkReferences": {}
  },
  "methodIdentifiers": {
    "balance(address)": "e3d670d7",
    "holdings(address)": "dd3ced63",
    "increaseTotalSupply()": "de0f2be1",
    "owner()": "8da5cb5b",
    "renounceOwnership()": "715018a6",
    "retrieveTotalSupply()": "6b42141b",
    "transfer(uint256,address)": "b7760c8f",
    "transferOwnership(address)": "f2fde38b",
    "viewPayments(address)": "0d526427"
  },
  "id": 10
}